{
  "transactions": [
    {
      "hash": "0x81b3e40e04e0b378850018bce14f6cc38c97d1593b897359e430fe9c945f9992",
      "transactionType": "CALL",
      "contractName": null,
      "contractAddress": "0x5A8B1DAfAA81765CD381f444344FF95bf8F7A6E2",
      "function": "openPosition(uint256,uint256,bool,uint256)",
      "arguments": [
        "1000000000000000000000",
        "99999000000000000000000",
        "true",
        "1"
      ],
      "transaction": {
        "type": "0x02",
        "from": "0x7735ce49c065d175d5fc39cf030586575b5194c5",
        "to": "0x5a8b1dafaa81765cd381f444344ff95bf8f7a6e2",
        "gas": "0x8f748",
        "value": "0x0",
        "data": "0x3dc8f14400000000000000000000000000000000000000000000003635c9adc5dea0000000000000000000000000000000000000000000000000152cf4e72a974f1c000000000000000000000000000000000000000000000000000000000000000000010000000000000000000000000000000000000000000000000000000000000001",
        "nonce": "0x1",
        "accessList": []
      },
      "additionalContracts": [],
      "isFixedGasLimit": false
    }
  ],
  "receipts": [],
  "libraries": [],
  "pending": [
    "0x81b3e40e04e0b378850018bce14f6cc38c97d1593b897359e430fe9c945f9992"
  ],
  "returns": {},
  "timestamp": 1718577068,
  "chain": 998,
  "multi": false,
  "commit": "ea5e4a7"
}